:020000040800F2
:1000000028800024B102000867410008173D00085D
:100010006541000869040008D14B00080000000099
:10002000000000000000000000000000AD430008D8
:100030006B0400080000000069410008AF4300089D
:10004000CB020008CB020008CB020008CB0200085C
:10005000CB020008CB020008CB020008CB0200084C
:10006000CB020008CB020008CB020008CB0200083C
:10007000CB020008CB020008CB020008CB0200082C
:10008000CB020008CB020008CB020008CB0200081C
:10009000CB020008CB020008CB020008CB0200080C
:1000A000CB020008CB020008CB020008CB020008FC
:1000B000CB020008CB020008CB020008CB020008EC
:1000C000CB020008CB020008CB020008CB020008DC
:1000D000CB020008C54B0008CB020008CB02000889
:1000E000CB020008CB02000800000000CB02000891
:1000F000CB020008CB020008CB020008CB020008AC
:10010000CB020008CB020008CB020008CB0200089B
:10011000CB020008CB020008CB020008CB0200088B
:10012000CB020008CB020008CB020008CB0200087B
:10013000CB0200086D040008CB020008CB020008C7
:1001400000000000000000000000000000000000AF
:10015000CB020008CB020008CB020008CB0200084B
:10016000CB020008CB020008CB020008CB0200083B
:10017000CB020008CB020008CB020008CB0200082B
:10018000CB020008CB020008CB020008CB0200081B
:10019000CB020008CB020008CB020008CB0200080B
:1001A000CB020008CB020008CB020008CB020008FB
:1001B000CB020008CB020008CB020008CB020008EB
:1001C000CB020008CB020008CB020008CB020008DB
:1001D000CB020008CB020008CB020008CB020008CB
:1001E000CB020008CB020008CB020008CB020008BB
:1001F000CB020008CB020008CB020008CB020008AB
:10020000CB020008CB020008CB020008CB0200089A
:10021000CB020008CB020008CB020008CB0200088A
:10022000CB020008CB020008CB020008000000004F
:10023000CB020008CB02000800000000CB0200083F
:10024000CB020008CB020008CB020008CB0200085A
:10025000CB020008CB020008CB020008CB0200084A
:10026000CB020008CB020008CB020008CB0200083A
:10027000CB020008CB020008CB02000800000000FF
:10028000CB020008CB020008CB02000800000000EF
:1002900000000000CB020008DFF810D000F0D2F818
:1002A000004800476D750008AFF3008028800024E7
:1002B0000648804706480047FEE7FEE7FEE7FEE700
:1002C000FEE7FEE7FEE7FEE7FEE7FEE791440008F3
:1002D000990200082DE9F05F0546002092469B46F2
:1002E00088460646814640241BE02846414647464C
:1002F000224600F097F853465A46C01A914110D34F
:1003000011461846224600F07EF82D1A67EB0108C8
:100310004F4622460120002100F075F817EB000936
:100320004E41201EA4F10104DFDC484631462A4636
:100330004346BDE8F09F00000649074A086850435D
:1003400043F23902104408604008704701490860D0
:1003500070470000F00000246D4EC64110B5431AEE
:10036000934209D28318881803E010F8011D03F89E
:10037000011D521EF9D210BD40EA01039B0703D0B4
:1003800009E008C9121F08C0042AFAD203E011F8D4
:10039000013B00F8013B521EF9D210BDD2B201E080
:1003A00000F8012B491EFBD270470022F6E710B57A
:1003B00013460A4604461946FFF7F0FF204610BDD3
:1003C00030B504460020034600E05B1C934203D294
:1003D000E05CCD5C401BF8D030BD30B50B4601462B
:1003E00000202022012409E021FA02F59D4205D3D4
:1003F00003FA02F5491B04FA02F52844151EA2F17E
:100400000102F1DC30BD202A04DB203A00FA02F1BF
:10041000002070479140C2F1200320FA03F31943F2
:1004200090407047202A04DB203A21FA02F0002194
:10043000704721FA02F3D040C2F1200291400843F4
:1004400019467047064C074D06E0E06840F001038E
:1004500094E8070098471034AC42F6D3FFF720FF2A
:10046000DCEF0008FCEF0008FEE77047014800F0F1
:10047000A3BF0000104B002470B5A2B006460024B4
:100480004FF4C36001258DF80F5002238DF81D40F5
:1004900069038DF80E5009948DF81F400D902020AF
:1004A0008DF804508DF8325042028DF8605006915C
:1004B0004FF040518DF8384002948DF861408DF82E
:1004C0001C408DF828408DF862408DF80C400B944C
:1004D0008DF81E500F948DF8115012948DF84040F5
:1004E0008DF831408DF8124014948DF856401790D5
:1004F000304616938DF8205005928DF854408DF8B3
:1005000030408DF81050009169468DF80D408DF8FF
:10051000554011948DF84C5000F048FA1B95680531
:100520008DF871404FF406718DF8685019948DF86C
:1005300080408DF870401F908DF878401D903046B7
:100540008DF88140219119A900F0D6F922B070BD33
:100550000020704701F092BC10B5024801F02EFA5D
:10056000002010BD104B002410B513460A4601466A
:10057000044801F089F910B14FF0FF3010BD0020A0
:1005800010BD0000104B002410B513460A4601466A
:10059000044801F025FB10B14FF0FF3010BD0020E2
:1005A00010BD0000104B00242DE9F04F836A00F1CC
:1005B000180593468C6800271E46B94655F8232037
:1005C000D2F80CC0BCF1000F7EDB05EB830CDCF82D
:1005D00014C0BCF1000F77D191F800C05FEA4C7CE9
:1005E00043D5D2F80CC0D1F824806FF30F0C4CEA3D
:1005F000080CC2F80CC0D2F80CC04CF4803CC2F815
:100600000CC0D0F800C0DCF8608048F48018CCF84A
:10061000608091F800C05FEA0C7C26D5B1F82C8090
:10062000D2F808C068F31F4CC2F808C0D2F80CC05A
:100630004CF4003CC2F80CC0D2F80CC0D1F83080A9
:100640002CF4402C4CEA080CC2F80CC0D0F800C0C6
:10065000DCF8648048F48018CCF864800068D0F836
:1006600050C04CF0806CC0F850C00878C0060BD564
:100670009068D1F818C06FF30D0040EA0C0090604C
:10068000D06840F08060D060087810F0140F1ED061
:10069000D06840F08040D060BFF35F8FD0685B1CB3
:1006A000042B40F00040D06000D31B1F012755F8F9
:1006B0002320D06800280ADA55F82600BFF35F8FA0
:1006C000C16821F0004100E0A3E0C160A1E0206822
:1006D00010609068D4F804C06FF30D0040EA0C007D
:1006E0009060DFF810827F1CA0684FF0000A50B1C4
:1006F000044600685060D2F808C0A0880CEA080CD4
:100700004CEA004004E0C2F804A0906800EA080047
:1007100090600878C006D06812D5B1F820C020F4E7
:10072000F00040EACC40D060D068D1F81CC06FF334
:10073000110040EA0C00D060D06840F480201BE03B
:10074000D1F804C06FF30E0040EA0C00D0600878C6
:10075000C00707D0D068D1F814C020F4403040EA78
:100760000C00D0600878800607D5D068D1F810C09A
:1007700020F0406040EA0C00D0600878400707D5C0
:100780009068D1F828C020F4404040EA0C00906006
:10079000D06840F00050D060D06820F08040D06039
:1007A000BFF35F8FD06840F00040D06008788007CA
:1007B0007ED5D068D1F80CC020F0607040EA0C0003
:1007C00075E0D0685B1C042B20F08050D06000D313
:1007D0001B1F55F82320D06820F00050D060D0684F
:1007E000002803DB05EB83004069A8B155F826100B
:1007F00000200CE0BFF35F8FCA68761C042E22F045
:100800000042CA6000D3361F401C55F82610B8427B
:10081000F0D30220BDE8F08FA468206810609068D3
:10082000D4F804C06FF30D0040EA0C009060A0689B
:100830007F1C50B1044600685060D2F808C0A08800
:100840000CEA080C4CEA004004E0C2F804A09068EE
:1008500000EA080090600878C006D0680AD5D1F890
:100860001CC06FF3110040EA0C00D060D06840F467
:10087000802010E0D1F804C06FF30E0040EA0C00B5
:10088000D0600878C00707D0D068D1F814C020F431
:10089000403040EA0C00D06009F10109BFF35F8FDE
:1008A000D06840F00040D060D06820F0804000E088
:1008B00000E0D060A068002883D19068BBF1000FF1
:1008C00002D040F0004001E020F000409060D1688C
:1008D00005EB830041F08051D160696A41612B6171
:1008E00072B6A96A09F101000844A86262B6002044
:1008F00090E70000FFFF00C0F0B5026847F6020E67
:10090000274E4DF2010702F58052264DD1F800C066
:100910001368254C23EA0E0343EA0C0313600B799A
:10092000026891F80CE002F58052D1F808C01B0370
:1009300043EACE3343EA0C03D2F804C02CEA070C96
:100940004CEA030CC2F804C002684F7B02F58052E7
:100950000B6A43EA0747D2F8003133403B43C2F801
:10096000003102680B7D02F5805291F81DC00F69BD
:10097000D2F804611B0143EA0C332E403B431E4373
:10098000C2F8046100680B7F00F580508A69D0F8D6
:10099000081142EAC37221401143C0F80811F0BDAA
:1009A00000C0FEFFEFEFC0FFFFFFC07FF0B50B7987
:1009B0000C7B0F688A68DB064D7B43EAC4533A43DD
:1009C0008E7B1A43CF7B91F810C042EA855242EAEF
:1009D0004652BCF1000F42EA07537CD000224C7C07
:1009E000002C43EAC24278D000238E7C0D7F42EA7D
:1009F00043428F7FD1E9053442EA06424E7F1A43D3
:100A0000224342EA0532002F42EAC62466D0002281
:100A1000CD7F91F8203044EA8222002B42EA452221
:100A20007ED0002504684B6A42EA052291F82870BE
:100A3000464D1A43CE6A236842EA071232432B40DE
:100A40001343236091F83C2091F8383091F83050EE
:100A500091F83140520642EA036291F8326042EA6C
:100A6000854242EA4444BEB300220368384E4F6BCD
:100A700044EA02425C683A4340F20F1534401443A2
:100A80005C60036891F840604C6CDA6844EA0624C4
:100A9000AA432243DA6091F854300A6D91F84C4031
:100AA00042EA4302ECB300240368B1F848504FF621
:100AB0000D76E7011C6F47EA05452A43344014438D
:100AC0001C67026891F8563091F8555052F8904FD3
:100AD00043EA450303E02BE032E02BE02CE024F076
:100AE00003041C43146002688C6DD2F8003D23F0AF
:100AF00072032343C2F8003D91F86020CC6D1AB315
:100B00005FF00003026891F8615091F8621044EAC6
:100B10008310D2F8303D2C0144EAC101084301E0C2
:100B20000CE00FE023F07B010143C2F8301DF0BD63
:100B3000012254E7012358E7012269E7012571E703
:100B4000012292E70124AFE70123DBE78380040061
:100B50000080F8C02DE9F84F04464FF000094FF02F
:100B6000414B4FF00108CDF800904FF0014AD4E915
:100B70001A5700EB8500866C1EE0306930B9684674
:100B800000F0B4FE009850B130613060B8F1000F51
:100B900012D0BFF35F8FA06D20B1584603E04FF035
:100BA000000809E05046F0606D1C042D00D32D1F95
:100BB0007F1E04EB8500866C17B1B8F1000FDCD105
:100BC000E06EB84206D0216801F58051C1F8289145
:100BD000C4E91A57BDE8F88F72B6FEE770B505464E
:100BE00001F04CF9064C2168401A642807D301F043
:100BF00045F920602846BDE8704004F0F3BF70BDA1
:100C0000300000242DE9F84F044601F037F9009038
:100C10003CB194F83500022806D08021616500209F
:100C2000E4E00120BDE8F88FC74DC74EC64918352E
:100C300020683036DFF81483DFF814938842DFF839
:100C400014A3DFF814B32ED0A8422CD0B0422AD07F
:100C5000404528D0484526D0504524D0584522D07C
:100C6000BD4A183290421ED0BC4A90421BD0BB4AAB
:100C70001832904217D0B94A3032904213D0B74A56
:100C8000483290420FD0B54A603290420BD0B34AFE
:100C90007832904207D0B14A9032904203D0AF4AA6
:100CA000A832904209D1026822F01E020260206838
:100CB000426922F08002426103E0026822F00E02E3
:100CC000026027688F4238464DD0A8424BD0B042D0
:100CD00049D0404547D0484545D0504543D0584578
:100CE00041D09D4A183290423DD09C4A90423AD021
:100CF0009A4A1832904236D0984A3032904232D0D6
:100D0000964A483290422ED0944A603290422AD07D
:100D1000924A7832904226D0904A9032904222D025
:100D20008E4AA83290421ED08D4A90421BD08C4AE7
:100D30001432904217D08A4A2832904213D0884AFF
:100D40003C3290420FD0864A503290420BD0844AB7
:100D50006432904207D0824A7832904203D0804A6F
:100D60008C32974204D1206E026822F480720260B5
:100D700075492068884228D0A84226D0B04224D0A5
:100D8000404522D0484520D050451ED058451CD063
:100D900071491831884218D07049884215D06F497E
:100DA0001831884211D06D49303188420DD06B49DD
:100DB0004831884209D069496031884205D0674985
:100DC0007831884201D065499031016821F00101F4
:100DD00001600EE001F052F80099401A052808D988
:100DE000202262650321002084F8351084F8340045
:100DF00017E73868C007EDD1534A012120689042B7
:100E00002ED0A8422CD0B0422AD0404528D0484508
:100E100026D0504524D0584522D04F4B1833984205
:100E20001ED04E4B98421BD04C4B1833984217D0D3
:100E30004A4B3033984213D0484B483398420FD036
:100E4000464B603398420BD0444B7833984207D0DE
:100E5000424B9033984203D0404BA833984208D17C
:100E600094F85C703F23A06D07F01F07BB408360C0
:100E700007E094F85C30A06D03F01F0301FA03F360
:100E80004360206890424DD0A8424BD0B04249D038
:100E9000404547D0484545D0504543D0584541D0BE
:100EA0002D4A183290423DD02C4A90423AD02B4ADB
:100EB0001832904236D0294A3032904232D0274AF6
:100EC000483290422ED0254A603290422AD0234A9E
:100ED0007832904226D0214A9032904222D01F4A46
:100EE000A83290421ED01E4A90421BD01C4A143297
:100EF000904217D01A4A2832904213D0184A3C32F6
:100F000090420FD0164A503290420BD0144A6432AD
:100F1000904207D0124A7832904203D0104A8C3265
:100F200090420BD1D4E919024260E06E30B1026800
:100F300022F480720260D4E91C024260002084F82E
:100F4000351084F834006DE610000240580002406D
:100F50007000024088000240A000024010040240DD
:100F6000085402582DE9F05F28B190F83510022995
:100F700004D0802141650120BDE8F09F904C904B4A
:100F80000168183C18338E4ADFF83C92A1428D4C20
:100F9000DFF838E28E4FDFF83CB2DFF83CA28F4D2D
:100FA0008F4E31D091422FD099422DD0A1422BD0DB
:100FB000494529D0714527D0B94225D0DFF810C264
:100FC0000CF1180C61451FD0DFF808C2ACF1600CC1
:100FD000614519D0DFF8FCC1ACF1480C614513D074
:100FE000DFF8F0C1ACF1300C61450DD0DFF8E4C1A1
:100FF000ACF1180C614507D0594505D0514503D0D7
:10100000A94201D0B1422CD1DFF8B4C14FF004089D
:1010100080F83580ACF1180C61451DD091421BD091
:10102000994219D0A14217D0494515D0714513D026
:10103000B94211D06648183081420DD065486038F9
:10104000814209D063484838814205D06148303830
:10105000814201D05F481838086820F0010008601C
:10106000ABE0D1F800C02CF00E08DFF854C1C1F895
:101070000080ACF1180C0168614527D0914225D061
:10108000994223D0A14221D049451FD071451DD09E
:10109000B9421BD0DFF838C10CF1180C614515D0EE
:1010A000DFF830C1ACF1600C61450FD0DFF824C12E
:1010B000ACF1480C614509D0DFF818C1ACF1300C37
:1010C000614503D0DFF80CC1ACF1180CD1F800C0B9
:1010D0002CF0010CC1F800C0DFF8E4804FF0010CE7
:1010E0000168A8F11808414546D0914244D0994280
:1010F00042D0A14240D049453ED071453CD0B94292
:101100003AD0334A1832914236D0324A603A91424C
:1011100032D0304A483A91422ED02E4A303A91424B
:101120002AD02C4A183A914226D0594524D051450C
:1011300022D0A94220D0B1421ED02A4A91421BD0CF
:10114000284A1432914217D0264A2832914213D0AD
:10115000244A3C3291420FD0224A503291420BD065
:10116000204A6432914207D01E4A7832914203D01D
:101170001C4A8C32914218D1016E0A6822F48072A6
:101180000A6090F85C20816D02F01F020CFA02F2F6
:101190004A60D0E919124A60C16E31B10A6822F47E
:1011A00080720A60D0E91C124A600022016D80F84A
:1011B00035C080F8342001B188470020DCE600000B
:1011C000280002405800024070000240880002409F
:1011D000A00002407004024088040240A0040240C3
:1011E000B8040240085402587047704700297DD067
:1011F0000268126802F00C02CA6202681268C2F346
:10120000001281F828200268126802F060024A6227
:101210000268126842F30022521C81F82020026802
:101220001268C2F34022CA770268126842F3802231
:10123000521C8A7702681268C2F3C0224A77026899
:101240001268C2F300320A770268126802F4005290
:101250008A610268126802F480424A610268126878
:10126000C2F300428A740268126842F34042521C80
:101270004A740268126842F3C042521C0A7402683F
:101280001268C2F30052CA7302681268C2F3405275
:101290008A7302681268C2F380524A730268126845
:1012A000C2F3C0520A730268126802F0E0628A60F8
:1012B00002681268C2F3C0620A710268126802F022
:1012C000E0420A6002685268C2F30D024A63026893
:1012D000526842F30042521C81F832200268526880
:1012E000C2F3404281F83120026800E062E05268B7
:1012F000C2F3804281F8302002685268C2F3006273
:1013000081F8382002685268C2F34462CA630268F6
:10131000D268C2F3002281F840200268D26802F04D
:101320000F024A640268126FC2F3400281F854202F
:101330000268126F42F3C012521C81F84C200268FE
:10134000126F02F070020A650268126F120C8A6452
:101350000268D2F8902002F0010281F8562002685B
:10136000D2F89020C2F3400281F855200268D2F8EA
:10137000002D02F072028A650268D2F8302D02F068
:101380002302CA650268D2F8302DC2F3C00281F888
:1013900062200268D2F8302DC2F3001281F8612079
:1013A0000068D0F8300D40F38010401C81F86000D8
:1013B000002070470120704770B50446006800F5B2
:1013C0008050D0F8601149060AD5D0F8341149068A
:1013D00006D548F24001C0F86011204600F0ACFA92
:1013E000206800F58050D0F86011C9070AD0D0F805
:1013F0003411C90706D048F20101C0F86011204637
:1014000000F0EBFB2068E02600F58050D0F860117A
:1014100049042AD5D0F83411490426D5D4F88810C7
:1014200041F00801C4F88810D0F86011C9040FD544
:10143000D0F8601141F202121140C4F88C10D0F8BB
:10144000341121F44041C0F83411C4F8846009E03B
:10145000D0F860214FF4CD4102F4CD42C4F88C2085
:10146000C0F860112046FFF7C0FE21680025D1F8C2
:10147000B400420401D4800410D5D4F8880040F0B0
:101480001000C4F88800D1F8B800C4F89000C4F87F
:1014900084602046FFF7A9FEC4F890502068D0F879
:1014A000B010C9060AD5D0F8C00000F06000C4F83A
:1014B0009400204600F070F9C4F894502068D0F8E9
:1014C000B01089060AD5D0F8C00000F00F00C4F8AB
:1014D00098002046FFF788FEC4F898504FF0B040BF
:1014E000D0F8A810490206D54FF48001C0F8A81022
:1014F000204600F073FB70BDF8B5040003D0D4F8AB
:10150000840010B107E00120F8BD2320C4F8840056
:10151000204600F0CBF86248016841F0020101600A
:10152000006800F002000090207A08B14FF400003B
:1015300002F0C4F85B492068096800F58050016832
:1015400041F00101016000F099FCE02605464FF4EE
:10155000FA7706E000F092FC401BB84201D9042063
:1015600023E0206800F580500068C007F2D12046D3
:1015700000F024FA01F0FEFC4B4A2168B0FBF2F0C7
:10158000401EC1F8DC002046FEF776FF206800F51B
:101590008050D0F8001121F4E01141F40021C0F88E
:1015A00000116169880705D00120C4F88800C4F8DB
:1015B0008460A8E7206847F6FE7300F58050D0F8F5
:1015C00008219A4342EA4101C0F808110021084667
:1015D000E26800EB400504EB800302EBC5021160FA
:1015E00051609160D160401C04289A61F0D3A162DF
:1015F0000323206800F58050C0F82C312068E26891
:1016000000F58050C0F814212068E26800F5805091
:10161000C0F820215FF00002206902EB420604EBD3
:10162000820500EBC600016041608160C160521C10
:101630000161042A4161A864EED3E1652166A166D7
:10164000E166A165206800F58050C0F8303120685F
:10165000226900F58050C0F81C212268206902F53B
:1016600080524830C2F828011023D4E90020808835
:10167000C2F80003D4E900208578C77890F801C04B
:1016800006782D0446EA076045EA0C252843C2F88F
:101690000403C4F88810C4F884300020F8BD0000AA
:1016A000F44402580404005840420F00F0B587B0DB
:1016B0000024029403940494059406940068A0F115
:1016C0008041B1F520315AD12E48016841F40041E2
:1016D0000160016801F400410191016841F4803129
:1016E0000160016801F480310191016841F4003129
:1016F0000160006800F4003001902348016841F067
:1017000004010160016801F004010191016841F0E8
:1017100001010160016801F001010191016841F0DE
:1017200002010160006800F0020001903220029086
:1017300002270397032505950B260696134802A951
:1017400000F080FA8620029003970494059506968F
:1017500002A90F4800F076FA4FF460500290039708
:1017600004940595069602A90A4800F06BFA002237
:101770003D20114600F048FC3D2000F037FC07B04A
:10178000F0BD0000D8440258E04402580008025856
:10179000000002580004025870472DE9F84F4FF03E
:1017A000000704465FEA0109B84604D0D4F8840073
:1017B00023285FD106E0D4F8880040F00100C4F887
:1017C000880057E0E66D4FF0000BE16E04EB8600F9
:1017D000C1F1040A856C3AE0E868400003D5686806
:1017E000A06728686067E868800001D4E06F30B3C4
:1017F000E868800003D5C4F860B0C4F864B0E96854
:1018000060690090C80009D5EA68E9684FF00108EE
:10181000636EC2F30E00C01A0090216704F18001CC
:1018200000982A6983B2081F00F088F8216E491CCD
:101830002166626E009911446166C5F810B0761C8D
:10184000042E00D3361F7F1C04EB8600856CE868ED
:10185000002804DB574502D2B8F1000FBCD0E06E7F
:10186000C019E06602D02046FFF774F9B8F1010F05
:10187000E66502D00120BDE8F88FE26F0020C9F8CC
:101880000020C4F87CB0F6E72DE9F041044600687A
:101890001E46D0F80032DB0719D1D0F8003223F011
:1018A000787343EA415121F4F81141EA024141F0D1
:1018B0000D01C0F8001200F0E1FA4FF47A77054606
:1018C00008E000BF00F0DAFA401BB84202D901205C
:1018D000BDE8F0812068D0F80002C007F2D120688E
:1018E000D0F8040280B230600020F1E710B582B079
:1018F00004460E4806F006FB034683B103F12000C0
:1019000020600B4818614FF4BF61206841220191AB
:1019100000210090084607F0D5F802B010BD054937
:10192000012008700020206002B010BDB0ED00085A
:101930007191000814000024704700004DF8044D18
:10194000A2F1200C0024CCF80040ACF80840ACF820
:101950000A300468002C20D00C68C4F800C0C1F81C
:1019600000C0006828B1018919440181006800287D
:10197000F9D1002B0EDD02F01F001844BFF34F8F8A
:1019800007490A60203220380028FADCBFF34F8F65
:10199000BFF36F8F5DF8044B7047C0F800C0DEE7FF
:1019A0005CEF00E010B519B1D0F88420102A01D006
:1019B000012010BDFEF7FAFF002010BD70B50546EE
:1019C0000068D0F8000220F4706401F0D3FA1149E5
:1019D000114A0144914202D244F4007416E00F4AC5
:1019E0000F4902448A4202D244F440740EE00D4A88
:1019F0000D4902448A4209D30C4A0D4910448842D9
:101A000002D244F4807401E044F480642868C0F891
:101A1000004270BD00D3CEFEC0E1E40040F1E9FD1C
:101A200040787D0100796CFC005A6202001F0AFABE
:101A300080F0FA0270B50446D0F88400102801D076
:101A4000012070BD2325C4F884500420E0662046A0
:101A5000FFF780F82068016841F00201016020680A
:101A6000016841F0010101602068D0F8001D41F0DB
:101A70000101C0F8001D206800F58050D0F8041165
:101A800041F00101C0F80411206800F58050D0F841
:101A9000081141F00101C0F80811206800F58050DC
:101AA000D0F8601141F48171C0F86011C4F884501D
:101AB000002070BDD0F88410232901D00120704788
:101AC0002321C0F884101022016801F58051D1F85B
:101AD000043123F00103C1F80431016801F580519C
:101AE000D1F8083123F00103C1F8083101680B680F
:101AF00023F001030B600168D1F8003D43F00103BE
:101B0000C1F8003D01680B6823F002030B60C0F8C8
:101B10008420002070472DE9F0411546044621B18C
:101B2000D4F88400232805D055E0D4F8880040F08C
:101B3000010008E000222046FEF736FD30B1D4F85F
:101B4000880040F00200C4F8880044E0BFF34F8FE3
:101B5000A06A04EB8001401C04288E69A06201D3B6
:101B6000001FA0620146206804EB810100F580504F
:101B70008969C0F8201100F081F907461CE020684F
:101B800000F58050D0F86001C0040DD5D4F888006D
:101B900040F00800C4F88800206800F58050D0F8B4
:101BA0006001C4F88C0016E0681C05D000F066F9EE
:101BB000C01BA84206D82DB1F0680028DFDB00204A
:101BC000BDE8F081D4F888104FF0405041F0040196
:101BD000C4F88810F0600120F2E7704770470000F9
:101BE00070B504460068D0F80052ED071FD1D0F858
:101BF00000029BB2124D20F07870C5F8043240EA22
:101C0000415020F4F81040EA024020F00C00001D82
:101C100040F00100C5F8000200F030F94FF47A7688
:101C2000054606E000F02AF9401BB04201D9012028
:101C300070BD2068D0F80002C007F3D170BD00006D
:101C4000008002402DE9F84F03247D4D00234FF022
:101C500001094FF0B04B4FF00F0AE9E009FA03F722
:101C60003A4076D00E7906F00306012E01D0022EFE
:101C700018D1D0F808C04FEA430ECE6804FA0EF827
:101C80002CEA080C06FA0EF646EA0C068660D0F836
:101C900004C00E792CEA070CC6F300169E4046EAF3
:101CA0000C0646600E79F643B6070BD0C6684FEABD
:101CB00043088F6804FA08FC26EA0C0607FA08F7BE
:101CC0003743C7600E7906F00306022E12D1DE08F4
:101CD0000F694FEA437C00EB8606B646366A4FEA48
:101CE000DC6C0AFA0CF807FA0CF726EA0806374308
:101CF000CEF820700F7906684FEA430807F0030713
:101D000004FA08FC07FA08F726EA0C0637430760CE
:101D10004E6816F4403F1CD04A4E376847F0020721
:101D2000376036689F0706F00206009623F0030628
:101D300006F1B046B6463F0FD6F80864DFF80881D2
:101D40000AFA07FC404526EA0C0603D14FF0000CC6
:101D500041E06CE0DFF8F4C0604502D14FF0010CC7
:101D600039E0DFF8ECC0604502D14FF0020C32E000
:101D7000DFF8E0C0604502D14FF0030C2BE0DFF844
:101D8000D8C0604502D14FF0040C24E0DFF8CCC08D
:101D9000604502D14FF0050C1DE0DFF8C4C060457E
:101DA00002D14FF0060C16E0DFF8B8C0604502D152
:101DB0004FF0070C0FE0DFF8B0C0604502D14FF0E4
:101DC000080C08E0DFF8A4C0604502D14FF0090C10
:101DD00001E04FF00A0C0CFA07FC4CEA060CCEF8B6
:101DE00008C44F68DBF80060FF0226EA020600D54F
:101DF00016435F46CBF80060D1F804C0DBF80460FE
:101E00005FEA8C2C26EA020600D516437E606E68D7
:101E10004F6826EA0206BF0300D516436E602E689F
:101E20004F6826EA0206FF0300D516432E605B1CAE
:101E30000A6832FA03F67FF411AFBDE8F88F0000AC
:101E400080000058F4440258000002580004025870
:101E500000080258000C02580010025800140258E2
:101E600000180258001C0258002002580024025892
:101E700001480068000C70470010005C0148806851
:101E80007047000000000024024881680278114475
:101E90008160704700000024032010B500F0D4F8E2
:101EA00001F0AEF80F4A104914681368C4F3032216
:101EB00003F00F038A5CC95C02F01F0201F01F01EE
:101EC000D0400A4A20FA01F11160094908600F2048
:101ED00000F010F808B1012010BD00F079F80020E2
:101EE00010BD000018440258A0ED000810000024A6
:101EF0000C00002470B50D4D04462878A0B14FF4B5
:101F00007A71B1FBF0F00A490968B1FBF0F001F019
:101F1000DFFB48B9102C07D200222146501E00F0EA
:101F200073F800206C6070BD012070BD00000024BB
:101F30000C000024F0B5154C4378211D0A1D2360C8
:101F40000378F3B143680B60057BC67A817A437BE3
:101F50002D07847B45EA0665C77B90F809C0067AA1
:101F600090F800E045EAC14040EA834040EA44403E
:101F700040EA074040EA0C2040EA460040EA0E00F2
:101F800001E0002008601060F0BD000098ED00E066
:101F9000BFF35F8F044800210368034A23F48033B2
:101FA000036070321160704724ED00E0074A40F092
:101FB0000100064970321060086840F48030086003
:101FC000BFF34F8FBFF36F8F7047000024ED00E029
:101FD000054808B5016841F002010160006800F0A1
:101FE0000200009008BD0000F4440258002809DBFC
:101FF000410900F01F028900012001F1E021904019
:10200000C1F80001704700000E4BF0B41B680D468C
:10201000C3F30223C3F10706042E00D90426191DB9
:10202000072901D2002300E0DB1E012404FA06F197
:102030009C40491E2940641E994014402143F0BC35
:1020400002F0D8BD0CED00E0064900F0070210B523
:102050004FF6FF040868044B204040EA0220184372
:10206000086010BD0CED00E00000FA05134970B5E2
:102070000A68D243520705D5096801F00701814279
:1020800013D118E00A6822F0070202430A60FFF742
:10209000F5FE0A4D4FF47A760446083D07E000BF8E
:1020A000FFF7ECFE001BB04201D9012070BD28688B
:1020B000C0438004F4D4002070BD00000C480258D6
:1020C00010B500F057FF05490968054AC1F3021130
:1020D000515C01F01F01C84010BD000020440258AF
:1020E000A0ED0008494930B5484C0B1D0A6814346E
:1020F00009681D68246802F00303C5F30012C1F3E8
:102100000531C4F3CC04002914FB02F200EE102ABE
:10211000F8EE400A75D03F4A9FED3D1AB7EE000A2F
:102120006BB1DFED3D1A012B01D0022B64D002EE22
:10213000101A1168F8EE422A81EEA22A21E0334CEF
:10214000283C23689B0612D5344B246801EE901A74
:102150001168C4F3C104F8EE612AE34001EE903A3D
:10216000C1F30801F8EE611A81EEA22A0BE001EE3C
:10217000901ADFED2B2A00BFF8EE611A116882EE8B
:10218000A12AC1F3080101EE901A1168F8EE611A54
:1021900040EE811A71EE800A62EE200AC1F34621F8
:1021A00001EE101AB8EE411A31EE001AC0EE811A93
:1021B000BCEEE11A80ED001A1168C1F3064101EE90
:1021C000101AB8EE411A31EE001AC0EE811ABCEEB8
:1021D000E11A80ED011A1168C1F3066101EE101ACF
:1021E000B8EE411A31EE000A80EE801ABCEEC10A48
:1021F00080ED020A30BD04E001EE901ADFED092AFD
:10220000BAE70021016041608160F3E72844025889
:1022100000000039384402580024744A0090D0036A
:102220000024744C20BCBE4B494930B5484C0B1DB2
:102230000A681C3409681D68246802F00303C5F3AA
:102240000022C1F30551C4F3CC04002914FB02F2AF
:1022500000EE102AF8EE400A75D03F4A9FED3D1A75
:10226000B7EE000A6BB1DFED3D1A012B01D0022B56
:1022700064D002EE101A1168F8EE422A81EEA22A0A
:1022800021E0334C283C23689B0612D5344B24684C
:1022900001EE901A1168C4F3C104F8EE612AE3401C
:1022A00001EE903AC1F30801F8EE611A81EEA22A1C
:1022B0000BE001EE901ADFED2B2A00BFF8EE611A59
:1022C000116882EEA12AC1F3080101EE901A11688B
:1022D000F8EE611A40EE811A71EE800A62EE200A71
:1022E000C1F3462101EE101AB8EE411A31EE001A80
:1022F000C0EE811ABCEEE11A80ED001A1168C1F33C
:10230000064101EE101AB8EE411A31EE001AC0EE85
:10231000811ABCEEE11A80ED011A1168C1F3066161
:1023200001EE101AB8EE411A31EE000A80EE801A62
:10233000BCEEC10A80ED020A30BD04E001EE901A45
:10234000DFED092ABAE70021016041608160F3E70F
:102350002844025800000039404402580024744ABE
:102360000090D0030024744C20BCBE4B2DE9FE4FDE
:102370000546DFF8E48350F8081B0024F64FC943F4
:10238000019005F12800264608F124080090080174
:102390001DD4A86E50B1B0F5801F0CD0B0F5001F51
:1023A0000ED0B0F5401F1ED001240FE0386840F475
:1023B0000030386017E00198022101F0D7FE03E0F9
:1023C0000098022101F062FF04000CD02646288804
:1023D000C043C00523D4A86D05281ED2DFE800F055
:1023E0000C11161B1B00AA6ED8F8001021F4401126
:1023F0001143C8F80010EAE7386840F4003038604C
:1024000009E00198002101F0B1FE03E000980021ED
:1024100001F03CFF044674B100E001242646288800
:10242000C043800528D4E86D80281ED00CDC90B114
:1024300040280ED114E0AA6DD8F8001021F0070151
:102440001143C8F80010EAE7C02813D0B0F5807F28
:1024500010D001240FE0386840F40030386009E003
:102460000198002101F082FE03E00098002101F0B4
:102470000DFF04469CB126462888DFF8DC92C04355
:1024800009F12C0940052CD4D5F8A800B0F5800F2F
:1024900020D00DDCA0B1B0F5001F0FD115E0EA6D22
:1024A000D8F8001021F4E0711143C8F80010E3E7F8
:1024B000B0F5C00F13D0B0F5000F10D001240FE01D
:1024C000386840F40030386009E00198002101F0DC
:1024D0004DFE03E00098002101F0D8FE04467CB1D7
:1024E00026462888C04300052DD4D5F8AC00B0F1AD
:1024F000007F21D00EDCA8B1B0F1807F10D116E0B2
:10250000D5F8A820D9F8001021F460011143C9F8CA
:102510000010E6E7B0F1407F13D0B0F1806F10D02B
:1025200001240FE0386840F40030386009E0019879
:10253000002101F01BFE03E00098002101F0A6FE3F
:10254000044674B126462868C04380011FD4E86C55
:10255000D8B110280FD0202812D0302815D001244F
:1025600014E0D5F8AC20D9F8001021F0E061114357
:10257000C9F80010E7E7386840F40030386004E03C
:102580000198022101F0F2FD044674B12646288824
:10259000C043C0042BD4286EB0F5005F20D00DDC02
:1025A000A0B1B0F5805F0FD115E06B48EA6C203028
:1025B000016821F0300111430160E8E7B0F5405FA8
:1025C00013D0B0F5804F10D001240FE0386840F4EC
:1025D0000030386009E00198002101F0C7FD03E0F8
:1025E0000098002101F052FE04468CB1264628884E
:1025F000C043800429D4686EB0F5403F23D010DC7E
:1026000008B3B0F5803F14D0B0F5003F0FD115E00E
:102610002A6ED8F8001021F4E0411143C8F80010E8
:10262000E5E7B0F5802F0ED0B0F5A02F0BD0012438
:102630000AE00198012101F099FD03E000980121D1
:1026400001F024FE044694B126462888C043400485
:102650002AD4D5F8B000B0F1405F23D010DC08B325
:10266000B0F1805F14D0B0F1005F0FD115E06A6E59
:10267000D8F8001021F4E0211143C8F80010E4E775
:10268000B0F1804F0ED0B0F1A04F0BD001240AE082
:102690000198012101F06AFD03E00098012101F099
:1026A000F5FD044674B126462888C04300041FD4B3
:1026B000286FD8B1B0F1805F0ED0B0F1005F10D0BC
:1026C000012414E0D5F8B020D9F8001021F0E04141
:1026D0001143C9F80010E7E7386840F4003038606B
:1026E00004E00198012101F041FD044674B1264641
:1026F0002868C043C0011ED4A86CD0B101280ED0F8
:10270000022811D0032814D0012413E02A6FD8F82E
:10271000001021F040511143C8F80010E8E7386874
:1027200040F40030386004E00198022101F01EFD01
:102730000446ACB126462868DFF81CB0C043ABF1B4
:102740001C0B400252D40548016841F480710160BD
:10275000FFF794FB824611E02C44025800480258CF
:10276000FA48AA6C016821F0030111430160E2E715
:10277000FFF784FBA0EB0A00642835D8F448006812
:10278000C005F5D58CBBDFF8C4A3B5F8B4100AF1C9
:10279000240ADAF8000001F4407100F44070884225
:1027A00011D0DAF80010DAF8002021F4407142F478
:1027B0008032CAF80020DAF8002022F48032CAF809
:1027C0000020CAF80010D5F8B400B0F5807F1AD107
:1027D000FFF754FB029012E0FFF750FB0299411AF9
:1027E00041F2883081420AD9032426462878DFF84E
:1027F0005CA3C0430AF1080AC00721D03CE0DAF824
:1028000000008007E8D5D5F8B410C1F301200328F3
:1028100058460DD0016821F47C510160B5F8B42010
:10282000DAF80010C2F30B021143CAF80010DDE71A
:10283000C84A036802EA111223F47C511143ECE701
:10284000E86F182816D005DCA0B1082808D0102899
:1028500004D10AE020280DD028280BD001240AE05A
:102860000198012101F082FC03E00098012101F0B0
:102870000DFD044664B126462878C04380071ED467
:10288000A86F062819D2DFE800F0160C11161616EC
:10289000EA6FDAF8001021F038011143CAF800108D
:1028A000EAE70198012101F061FC03E000980121B1
:1028B00001F0ECFC04467CB100E0012426462878B7
:1028C000C04340071FD4D5F89400062819D2DFE88A
:1028D00000F0160C11161616AA6FDAF8001021F087
:1028E00007011143CAF80010E9E70198012101F03E
:1028F0003DFC03E00098012101F0C8FC0446A4B1AE
:1029000000E0012426462878C04380062BD4D5F861
:102910009000B0F1405F24D011DC10B3B0F1805FC3
:1029200015D0B0F1005F10D116E0D5F89420D9F899
:10293000001021F007011143C9F80010E3E7B0F1DE
:10294000804F0ED0B0F1A04F0BD001240AE00198C7
:10295000002101F00BFC03E00098022101F096FC3D
:10296000044694B126462878C04340062BD4D5F8B7
:102970009C00B0F5406F24D011DC10B3B0F5806F2F
:1029800015D0B0F5006F10D116E0D5F89020DAF828
:10299000001021F0E0411143CAF80010E3E7B0F560
:1029A000805F0ED0B0F5A05F0BD001240AE0019843
:1029B000002101F0DBFB03E00098022101F066FC3E
:1029C000044694B126462878C04300062BD4D5F897
:1029D000A000B0F5C04F24D011DC10B3B0F5005FFB
:1029E00015D0B0F5804F10D116E0D5F89C20D9F85D
:1029F000001021F4E0511143C9F80010E3E7B0F5ED
:102A0000004F0ED0B0F5204F0BD001240AE0019802
:102A1000002101F0ABFB03E00098022101F036FC3D
:102A2000044654B126462878C04300071ED4D5F882
:102A30008400B0F5805F0AD00FE0D5F8A020D9F867
:102A4000001021F460411143C9F80010EBE7009831
:102A5000022101F01BFC00B10126D5F88420DAF830
:102A6000001021F440511143CAF800102878C043E7
:102A7000C00613D4D5F89800B0F5807F05D1009832
:102A8000022101F003FC00B10126D5F89820D9F805
:102A9000001021F440711143C9F800102868C043A8
:102AA000000316D4D5F8A40038B1B0F5803F09D0A2
:102AB000B0F5003F0BD001240AE00198002101F09D
:102AC00055FB03E00098022101F0E0FB04468CB1C5
:102AD00026462868C043400322D4D5F88800B0F5C4
:102AE000801F11D0B0F5001F13D0B0F5401F15D0D6
:102AF000012414E0D5F8A420D9F8001021F44031C5
:102B00001143C9F80010E4E7386840F40030386039
:102B100004E00098012101F0B9FB04465CB12646AF
:102B20002868C043C00323D4286DA8B1B0F5803F06
:102B300017D001241BE0D5F88820DAF8001021F422
:102B400040111143CAF80010EAE700004C44025853
:102B500000480258CFFFFF00386840F4003038606A
:102B600004E00198022101F001FB0446E4B126468D
:102B70002868C043800005D40098022101F086FB3C
:102B800000B101262868C04380031BD4D5F880001B
:102B9000B0B1B0F5807F0FD0B0F5007F10D0B0F5A8
:102BA000407F0DD001240CE05A482A6D016821F4C1
:102BB000803111430160DBE7386840F40030386051
:102BC000ECB326462868C043C00207D46A6FD8F821
:102BD000001021F000411143C8F800102868C043DC
:102BE000C00008D4D5F8B820DBF8001021F48041EB
:102BF0001143CBF800102868C043800207D4EA6E66
:102C0000D8F8001021F080711143C8F8001028682E
:102C1000C04340000CD4DBF8001021F40041CBF895
:102C20000010DBF80010D5F8BC201143CBF80010E1
:102C30002868C04308D437486A6D016800E018E08E
:102C400021F04051114301602868C043000208D4BC
:102C5000D5F88C20DAF8001021F440011143CAF8AD
:102C6000001028790024C04300F0010020430AD05E
:102C70000FE0D5F88020DAF8001021F440711143FC
:102C8000CAF800109EE70198002101F06FFA00B128
:102C900006462879C04300F00200204305D1019880
:102CA000012101F063FA00B106462879C04300F023
:102CB0000400204305D10198022101F057FA00B128
:102CC00006462879C04300F00800204305D100984B
:102CD000002101F0DBFA00B106462879C04300F07C
:102CE0001000204305D10098012101F0CFFA00B176
:102CF00006462879C04300F02000044304D1009820
:102D0000022101F0C3FA00B916B10120BDE8FE8F1F
:102D10000020FBE74C4402582DE9F05F04000F4609
:102D20007ED0DFF83882D8F8000000F00F00B842FB
:102D30000CD2D8F8001021F00F013943C8F8001068
:102D4000D8F8000000F00F00B84269D12078844D17
:102D500040070AD52069296801F07001884204D92A
:102D6000296821F070010143296020787C4E361DCE
:102D700000070AD56069316801F07001884204D902
:102D8000316821F07001014331602078C0060AD516
:102D9000A069316801F4E061884204D9316821F406
:102DA000E061014331602078DFF8B4B180060BF1B7
:102DB000080B0CD5E1695846DBF8002002F07002E0
:102DC000914204D9026822F070020A43026020781E
:102DD00080070AD5E068296801F00F01884204D90C
:102DE000296821F00F01014329602078C0073ED0F7
:102DF0005B49A2682868183920F470601043286085
:102E00006068022818D0032819D00968012819D051
:102E1000490700294ADADFF848A1AAF1080A00E0C8
:102E200044E0DAF8002022F007020243CAF800204A
:102E3000FFF724F8814612E009688903E9E7096889
:102E40008901E6E7C905E4E7FFF718F8A0EB0901F7
:102E500041F28830814202D90320BDE8F09F6168C9
:102E6000DAF8000000F03800B0EBC10FECD12078A8
:102E700080070AD5E068296801F00F01884204D272
:102E8000296821F00F0101432960D8F8001040465D
:102E900001F00F01B9420BD9016821F00F0139434C
:102EA0000160006800F00F00B84201D00120D4E7B3
:102EB000207840070AD52069296801F0700188420E
:102EC00004D2296821F070010143296020780007AD
:102ED0000AD56069316801F07001884204D2316816
:102EE00021F07001014331602078C0060AD5A06945
:102EF000316801F4E061884204D2316821F4E06174
:102F000001433160207880060CD5E1695846DBF832
:102F1000002002F07002914204D2026822F0700296
:102F20000A43026000F06CF80E492A682B68C2F36D
:102F3000032203F00F038A5CC95C02F01F0201F058
:102F40001F01D040084A20FA01F1116007490860CA
:102F500007480068BDE8F05FFEF7CCBF00200052D4
:102F600018440258A0ED0008100000240C000024B2
:102F70000400002430B500F043F80B4A0B490C4B19
:102F800015681468C5F3032204F00F048A5C095D18
:102F900002F01F0201F01F01D040064A20FA01F1A1
:102FA00019601060084630BD18440258A0ED0008B2
:102FB000100000240C00002400B5FFF7DBFF0549DA
:102FC0000968054AC1F30211515C01F01F01C840B4
:102FD00000BD00001C440258A0ED000800B5FFF73A
:102FE000C9FF05490968054AC1F30221515C01F096
:102FF0001F01C84000BD00001C440258A0ED00089D
:10300000454970B545480968434B103B11F03802FB
:1030100008D00111082A03D0102A0BD0182A0BD08F
:10302000084670BD19688906FBD51968C1F3C1014E
:10303000C84070BD3A4870BD3749374D18310C1D36
:1030400024350A68096826682D6802F0030406F032
:103050000102C1F30511C5F3CC0515FB02F200EE28
:10306000102AB8EE400AE9B32F4ADFED2E0AB7EE78
:10307000001A6CB1DFED2D1A012C01D0022C43D0C7
:1030800002EE101A1068F8EE422A81EEA22A1EE023
:103090001C68A40611D51B6801EE901A1168C3F3D1
:1030A000C103F8EE612AD84001EE900AC1F308008E
:1030B000F8EE611A81EEA22A0BE001EE901ADFED24
:1030C0001C2A00BFF8EE611A106882EEA12AC0F334
:1030D000080001EE900AF8EE611A40EE201A31EE77
:1030E000810A00E015E022EE000A1068C0F34620D5
:1030F000401C00EE900AF8EE600A80EE201ABCEE4A
:10310000C10A10EE100A70BD01EE901ADFED092A17
:10311000D8E7002070BD0000104402580090D00392
:1031200040787D0100000039304402580024744A80
:103130000024744C20BCBE4B2DE9F05F04007DD010
:10314000FF4F2078FE4D1837DFF8F493103DC0078D
:1031500048D0D9F80000396800F03800102815D0A0
:10316000182803D101F0030002280FD06068B0F5E1
:10317000803F12D010B1B0F5A02F18D0286820F4ED
:1031800080302860286820F4802009E028688003C7
:1031900028D560680028D2D024E0286840F4803028
:1031A0002860606888B1FEF769FE064609E0286875
:1031B00040F480202860F0E7FEF760FE801B642862
:1031C0006FD828688003F7D50CE0FEF757FE064657
:1031D00005E000BFFEF752FE801B6428F0D8286887
:1031E0008003F7D4207841F20308D54E0C3E8007C7
:1031F00069D5D9F80000396810F038000ED01828C9
:1032000001D188070AD0E06890B3296821F019013C
:1032100001432960FEF732FE824631E0286840070C
:1032200002D5E06800288AD0E168286820F01900FB
:1032300008432860FEF722FE824607E0DFE000BF79
:10324000FEF71CFEA0EB0A000228B9D82868400748
:10325000F6D500BFFEF70CFE40451BD8206940287C
:1032600012D0316821F47C3141EA003030602AE02C
:1032700018E000BFFEF702FEA0EB0A0002289FD86C
:1032800028684007F6D5E5E7306820F47C3040F444
:103290000030EBE7207C316821F0FE4141EA00601C
:1032A000E4E70DE1286820F001002860FEF7E6FD64
:1032B000824605E0FEF7E2FDA0EB0A0002288DD869
:1032C00028684007F6D42078C0065DD5D9F80000FC
:1032D000DFF86CB2396800F03800ABF1040B082855
:1032E00010D0182803D101F0030001280AD0E069AA
:1032F0000028286838D040F080002860FEF7BEFD26
:10330000824623E02868C00523D5E069802876D16D
:103310001FE0206A202821D0316821F0F84141EADD
:103320008060306030E000BF94F82010DBF80020AF
:1033300022F07C5242EA0161CBF8001024E000BF89
:10334000FEF79CFDA0EB0A00022898D82868C0056B
:10335000F6D5FEF78DFD4045E6D8DAE7306820F077
:10336000F84040F08040DCE720F080002860FEF765
:1033700085FD064605E000BFFEF780FD801B0228A4
:103380009DD82868C005F7D42078000729D56C4857
:103390006169643000298046016811D041F0010163
:1033A0000160FEF76BFD064605E000BFFEF766FD17
:1033B000801B0228C9D8D8F800008007F6D510E095
:1033C00021F001010160FEF759FD064605E000BF4E
:1033D000FEF754FD801B022872D8D8F80000800741
:1033E000F6D42078800623D5A0690028286810D05C
:1033F00040F480502860FEF741FD064605E036E1C6
:10340000FEF73CFD801B02285AD828688004F7D5B7
:103410000EE020F480502860FEF730FD064604E000
:10342000FEF72CFD801B02284AD828688004F7D4B8
:10343000207840074FD5DFF80C81D8F8001041F410
:103440008071C8F80010FEF719FD064605E000BFC0
:10345000FEF714FD801B642832D8D8F80000C005A0
:10346000F6D5374EA068603601280AD008B1052885
:1034700013D0306820F001003060306820F0040084
:1034800002E0306840F001003060A06841F2883A04
:1034900090B1FEF7F3FC80460AE0306840F004008B
:1034A0003060EEE7FEF7EAFCA0EB0801514507D8D3
:1034B00030688007F6D50EE0FEF7E0FC804607E0B6
:1034C00084E000BFFEF7DAFCA0EB080151457DD88F
:1034D00030688007F6D4606AB0B3DFF86480D9F84A
:1034E000001008F120084FF6F87B08F10409C1F339
:1034F000C2010329A8F1040A69D00228286820F033
:103500008070286003D0FEF7B9FC044684E0FEF723
:10351000B5FC064605E000BFFEF7B0FC801B0228A4
:1035200077D828688001F7D4E26A40F2F33138682E
:1035300054F8283F884340EA02101843386004E0FA
:103540001044025800480258B5E0217B43462289C6
:103550004FF4FE0C208A4FF0FE474902267D521E92
:10356000401EA1F50071C2F308088AB2761E0CEA6B
:10357000004042EA08020243504607EA06610A4355
:103580001A60DAF8002022F00102CAF80020D9F807
:103590000020266A22EA0B0242EAC602C9F800208D
:1035A000DAF80010A26921F00C011143CAF80010EA
:1035B0000168E26921F0020111430160016841F4F0
:1035C00080310160016841F4003101E021E027E031
:1035D0000160016841F480210160016841F001014E
:1035E0000160286840F080702860FEF747FC0446C0
:1035F00005E000BFFEF742FC001B022809D828683E
:103600008001F7D557E000BFFEF738FC001B022809
:1036100002D90320BDE8F09F28688001F4D44AE075
:1036200039680128D8F8000021D0A26A01F003030C
:1036300093421CD1E26AC1F305118A4217D1216B72
:10364000C0F30802491E8A4211D1616BC0F34622C1
:10365000491E91420BD1A16BC0F30642491E914213
:1036600005D1E16BC0F30660491E814201D0012003
:10367000D0E7A16C4E46D9F80000C0F3CC008142DF
:1036800019D0DAF80000554620F00100CAF8000011
:10369000FEF7F4FB4FEA0007FEF7F0FBB842FBD061
:1036A000A26C306820EA0B0040EAC2003060286853
:1036B00040F0010028600020ACE7000003490A68E0
:1036C00022F4600202430A607047000004040058BC
:1036D000401EB0F1807F10B501D3012010BD4FF026
:1036E000E02460610F21601701F084FA0020A061DE
:1036F0000721216110BD30B590F88410012918D040
:10370000012280F884202421C0F88810002220247F
:1037100001680B680D6823F0005325F001050D606A
:10372000426601680B60C0F8884080F8842010462B
:1037300030BD022030BD7047704770B5044690F828
:10374000840001281DD0012284F884202420C4F89C
:10375000880020680568026822F001020260206883
:10376000826822F060620A438260204600F0FEFE1A
:103770002268202100201560C4F8881084F8840095
:1037800070BD022070BD70B5044690F88400012819
:103790001DD0012284F884202420C4F888002068E9
:1037A0000568026822F0010202602068826822F047
:1037B00060420A438260204600F0D8FE2268202141
:1037C00000201560C4F8881084F8840070BD0220C1
:1037D00070BD7047704770472DE9F04107680025BC
:1037E000044640F60F030226F8693968BA681842A1
:1037F0000AD183067ED501F0200302F0805C53EAF3
:103800000C0377D0616F74E1CF4BDFF840C31340F6
:1038100001EA0C0C53EA0C0C6CD05FEAC07C0CD0B3
:103820005FEAC15C09D54FF0010CC7F820C0D4F89D
:10383000907047F00107C4F89070870709D5D70743
:1038400007D027683E62D4F8906046F00406C4F8BA
:10385000906046070AD5D60708D0276804263E623E
:10386000D4F8906046F00206C4F8906006070CD5C4
:1038700001F020061E4308D0266808233362D4F8DE
:10388000903043F00803C4F8903003050BD54B018A
:1038900009D526684FF400633362D4F8903043F0C2
:1038A0002003C4F89030D4F89030002B3DD080062F
:1038B00009D501F0200002F08051084303D0616F68
:1038C00009B1204688472168D4F8900089684906E4
:1038D00002D410F0280F2AD0204600F02DFF2068D7
:1038E000806840061ED52068083050E8001F21F08F
:1038F000400100E021E040E80012002AF3D1D4F8B2
:10390000800078B192490165D4F88000FDF72AFB68
:1039100000280AD0D4F88000016D00E02046BDE800
:10392000F04108472046FFF756FFBDE8F0812046EA
:10393000FFF751FFC4F89050F7E7D4F86CC020238C
:10394000BCF1010F7ED15FEAC06C7BD55FEAC16C30
:1039500078D51020386220688068400673D5D4F886
:1039600080107C4A0868904234D07A4A18329042DB
:1039700030D0784A303290422CD0764A4832904249
:1039800028D0744A6032904224D0724A78329042F1
:1039900020D0704A903290421CD06E4AA832904299
:1039A00018D06D4A904215D06B4A1832904211D00F
:1039B000694A303290420DD0674A4832904209D06D
:1039C000654A6032904205D0634A7832904201D015
:1039D000614A903240680004000CA6D0B4F85C2024
:1039E0008242A2D9A4F85E00C869B0F5807F2FD0CA
:1039F000216851E8000F20F4807041E80002002A9D
:103A0000F6D12068083050E8001F21F0010140E89D
:103A10000012002AF5D12068083050E8001F21F07C
:103A2000400140E80012002AF5D1C4F88C30E56668
:103A3000216851E8000F20F0100041E80002002A40
:103A4000F6D101E040E00BE0D4F88000FDF7DAF8B1
:103A50002667B4F85C00B4F85E10401A81B22FE01B
:103A6000B4F85C00B4F85E10B4F85E20401A81B27D
:103A7000002AB2D00029B0D0226852E8000F20F40A
:103A8000907042E80007002FF6D1344F206800F113
:103A9000080050E8002F02EA070240E8002CBCF1C1
:103AA000000FF3D1C4F88C30E5666567206850E8F4
:103AB000002F22F0100240E80023002BF6D12667E9
:103AC0002046FFF738FE30E7C60209D5560207D573
:103AD0004FF4801038622046BDE8F041FFF77ABE0F
:103AE00006060AD501F0800602F40002164304D04F
:103AF000A16F00297FF412AF17E7420611D54A06DD
:103B00000FD52046026852E8001F21F0400142E82C
:103B10000014002CF6D1C0F88830856700F0FAF860
:103B200003E7020206D54A0004D52046BDE8F0416D
:103B3000FFF74FBEC001C6D50029C4DA2046BDE854
:103B4000F041FFF7F9BD0000010000102001000462
:103B5000234700081000024010040240FEFFFFEF60
:103B600010B5040003D0D4F8880010B107E001209C
:103B700010BD002084F88400204600F027F824209F
:103B8000C4F888002068016821F001010160204626
:103B900000F0FCFD0128EBD0A06A10B1204600F037
:103BA00007FD2068416821F49041416020688168E8
:103BB00021F02A0181602068016841F00101016063
:103BC0002046BDE8104000F057BD000010B5B6B06B
:103BD0000446142130A8FCF7E8FBC0216846FCF736
:103BE000E4FB1D492068884233D100201F90012149
:103BF0000446CDE900106846FEF7B8FB08B1FCF7B3
:103C0000EBFF1648016841F010010160006800F008
:103C10001000359011481038016841F00101016031
:103C2000006830AB022100F0010035904FF4C06015
:103C3000072283E813000A4830A9CDE93342FEF792
:103C400001F8002225201146FEF7DEF92520FEF7B7
:103C5000CDF936B010BD000000100140F04402580C
:103C6000000002582DE9F8430446D0F88800984631
:103C700016460D46202802D00220BDE8F883A5B1E3
:103C80009EB10021C4F890102120C4F88800183497
:103C9000FEF7F4F8814654F8100CA687E687202733
:103CA000183CB0F5805F02D003E00120E5E7206911
:103CB00010B12E46002510E000260EE0802120469F
:103CC00000F03AFFC0B9DEB116F8010B2168886236
:103CD000B4F85600401EA4F85600B4F856004B46FF
:103CE0004FF00002CDF800800028E7D14FF04001EE
:103CF000204600F021FF48B1C4F888700320BCE7DB
:103D000035F8020B2168C0F30800E0E7C4F88870BA
:103D10000020B2E77047FEE738B504460020009067
:103D2000012163696A4620689847002802DA6FF02B
:103D3000040038BD6369012120686A46984700285D
:103D400002DA6FF0040038BD009810F0040F09D0BB
:103D50006369002120686A469847002804DA6FF0FA
:103D6000040038BD012038BD009810F4805F09D0F0
:103D700063691F2120686A469847002814DA6FF0AB
:103D8000040038BD4FF40451814304D010F4005FA7
:103D900003D0032038BD022038BD10F4807F01D04D
:103DA000042038BD052038BD009810F4805F09D08C
:103DB00000F01C00182807D0082807D0142807D0C6
:103DC000052038BD062038BD022038BD032038BD8F
:103DD000042038BDF8B504460020009000260025D8
:103DE0006068002851D1A06800B180472020206081
:103DF000636912216A4630469847002802DA6FF05C
:103E0000040507E0009800F01F00B04202D12660D0
:103E1000002502E0761C1F2EEAD920681F2801D950
:103E20006FF002051DBB236900214FF40042984743
:103E3000002828DB6369002120686A46984700282B
:103E40001EDBA06980470646009810F4004F1CD086
:103E5000A0698047801BB0F5FA7F09D8636900210B
:103E600020686A469847002805DA6FF004050CE0E0
:103E70006FF0010509E0009810F4004FE8D104E06C
:103E80006FF0040501E06FF0030555B9A0698047A4
:103E90000646A0698047801BB0F5FA6FF9D901206A
:103EA00060602846F8BD002811D0CA687AB18A68D7
:103EB0006AB10A695AB10A6882604A68C260CA680F
:103EC00042618A68026109698161002070474FF090
:103ED000FF3070477FB5002400940194029403944E
:103EE000FEF756F807218DF808108DF80C400125D3
:103EF0008DF8094003228DF80D4011488DF80050CF
:103F00008DF80A408DF80E408DF80140019068460A
:103F10008DF80B208DF80F50FEF70CF809480D2195
:103F20008DF80E508DF80150019068468DF80810FC
:103F30008DF80F40FDF7FEFF0420FEF737F87FBD38
:103F40000000043000400430114808B5016841F019
:103F500004010160016801F004010091016841F071
:103F600080010160016801F080010091016841F069
:103F700001010160016801F001010091016841F057
:103F800002010160006800F00200009008BD00001E
:103F9000E0440258F0B583B04C4CC0212170A822F7
:103FA00062701F23A3700220E070FF20251D28707F
:103FB0006870A8700027EF7004F108063170727005
:103FC000B3700120F07003F094FA2078E178A278C1
:103FD00041EA0063617800064FEA014C4CEA022C8A
:103FE00040EA014043EA0C0340EA022101F47F4128
:103FF0004FEA036C00F47F004CEA012141EA1020F3
:10400000A4F10C0140EA136008602878E978AA78E6
:1040100041EA0063697800064FEA014C4CEA022C41
:1040200040EA014043EA0C0340EA022101F47F41E7
:104030004FEA036C00F47F004CEA012141EA1020B2
:10404000A4F1080140EA136008603078F178B27892
:1040500041EA0063717800064FEA014C4CEA022CF9
:1040600040EA014043EA0C0340EA022101F47F41A7
:104070004FEA036C00F47F004CEA012141EA102072
:10408000211F40EA13600860231F11481A1F1149BD
:104090000290114800970191111F03F07DFF0E4817
:1040A00004F0AEF90C4890F82D0010F0040F03D086
:1040B000094804F0BFFA02E0074804F0A7F903B08A
:1040C00006490548BDE8F04004F0F6B94000002478
:1040D000355B0008895D0008184C0024915C0008DD
:1040E00010B5054801F098FE05F0B2FABDE81040A1
:1040F0000148FCF773BD0000184C0024184800214B
:1041000010B5164C0C224FF4E1330460C0E90131C4
:10411000C160C0E904128161C161016241628162D2
:10412000FFF71EFD08B1FCF757FD0D480021FFF712
:104130002AFB08B1FCF750FD09480021FFF7FDFA02
:1041400008B1FCF749FD0648FFF7D5FA002803D06F
:10415000BDE81040FCF740BD10BD0000001001405C
:10416000F8000024FEE7FEE7704700002DE9F04765
:10417000454D044689464FF0000A2868C043800731
:104180000AD0414E283E306820F080603060FDF754
:1041900075FE0746B04608E00120BDE8F08700BF85
:1041A000FDF76CFEC01B022867D8D8F8000000019C
:1041B000F6D4206829684FF4FE0721F47C313E02D2
:1041C00041EA00302860207AA389B4F804C0400294
:1041D0002D4D2D495B1E227CACF1010C1035091DC3
:1041E000A0F5007080B2521ECCF3080C07EA03431E
:1041F00040EA0C00184306EA02621043286008688F
:10420000626920F0C000104308600A68A06922F0CB
:10421000200202430A60281D0A6822F010020A6088
:1042200002684FF6F873E4699A4342EAC4020260F6
:104230000868B9F1000F40F010020A6011D0086858
:10424000B9F1010F11D040F400100860D8F8000057
:10425000444640F08060C8F80000FDF70FFE0546B8
:104260000DE0086840F40020EFE740F48010ECE730
:10427000FDF704FE401B022801D903208DE72068CA
:104280000001F5D5504688E7284402582DE9F0474B
:10429000454D044689464FF0000A2868C043800710
:1042A0000AD0414E283E306820F080503060FDF743
:1042B000E5FD0746B04608E00120BDE8F08700BFF5
:1042C000FDF7DCFDC01B022867D8D8F8000080008D
:1042D000F6D4208829684FF4FE0721F07C713E0255
:1042E00041EA00502860207AA389B4F804C0400253
:1042F0002D4D2D495B1E227CACF1010C1835091D9A
:10430000A0F5007080B2521ECCF3080C07EA0343FC
:1043100040EA0C00184306EA02621043286008686D
:10432000626920F44060104308600A68A06922F4C2
:10433000007202430A60281D0A6822F480720A6033
:1043400002684FF6F873E4699A4342EAC4020260D5
:104350000868B9F1000F40F480720A6011D0086853
:10436000B9F1010F11D040F080700860D8F800005A
:10437000444640F08050C8F80000FDF77FFD054638
:104380000DE0086840F48000EFE740F40000ECE73F
:10439000FDF774FD401B022801D903208DE720683A
:1043A0008000F5D5504688E7284402587047FDF74D
:1043B0006BBD000070B59CB04C216846FBF7F5FF63
:1043C000202113A8FBF7F1FF0220FDF74FFE2D4936
:1043D00000242D480A6822F001020A600A68026877
:1043E00042F440420260026802F440421B920268BA
:1043F0009204FCD5254A136843F002031360126847
:1044000002F002021B92026842F44042026002681B
:104410000A6842F001020A60096801F001011B917B
:1044200001688904FCD50DF1280C022009900521B2
:10443000C0228CE80700C3030F9008250D900126C9
:104440000E90CDE91054CDE9006368461294FEF752
:1044500073FE08B172B6FEE740201A903F210301B7
:10446000CDE916500322CDE9180313AB13A883E856
:1044700016000421FEF750FC002801D072B6FEE7BA
:104480001CB070BD2C04005818480258F44402585F
:104490002C48F0B52C4A016841F4700101601068A5
:1044A00000F00F00072804D2106820F00F00C01D94
:1044B000106026490020254C10340B68244D43F031
:1044C00001030B6020600B682B400B60136803F046
:1044D0000F03072B04D9136823F00F03DB1D1360B0
:1044E0001A4C1C4A18341C4B261D371D2060174CD3
:1044F0001A4D28343060261D3860371D23603B1D5F
:1045000035601C1D3A60251D2E1D1860331D22606C
:104510002860326018600A680C4B114C22F480222B
:1045200060330A60186020686FF30F00B0F1005F1D
:1045300003D20C490120C1F8080143F2D2000A4914
:104540000860F0BD88ED00E00020005200440258F1
:104550007FEDF6EA80020101000202020000FF0185
:104560000010005C008000510040005230B5416EE8
:10457000B9B101680D4B03F108048A688968C2F378
:104580004262490F5D5C615C2D01B5FBF1F1A0F861
:104590006A10995CA25C0901B1FBF2F1A0F8681005
:1045A00030BD0121A0F86A10F8E7000090ED000886
:1045B00090F82810C90706D00168C36A4A6822F437
:1045C00000321A434A6090F82810890706D501681E
:1045D000036B4A6822F480321A434A6090F828102C
:1045E000490706D50168436B4A6822F480221A43C2
:1045F0004A6090F82810090706D50168836B4A685D
:1046000022F400421A434A6090F82810C90606D5E1
:104610000168C36B8A6822F480521A438A6090F85A
:104620002810890606D50168036C8A6822F40052B6
:104630001A438A6090F82810490611D50168436C26
:104640004A6822F480121A434A60416CB1F5801F17
:1046500006D10168836C4A6822F4C0021A434A609A
:1046600090F82810090606D50168C26C486820F445
:1046700000201043486070472DE9F84300250446A8
:10468000C0F89050FDF7FAFB8046206820266FF0B6
:104690007E470068000713D50022434631042046B8
:1046A000009700F049FA58B1216851E8000F20F056
:1046B000800041E80002002AF6D1C4F8886021E0B9
:1046C00020680068400722D5002243464FF480014D
:1046D0002046009700F030FAC8B1206850E8001F6B
:1046E00021F4907140E80012002AF6D120680830C9
:1046F00050E8001F21F0010140E80012002AF5D126
:10470000C4F88C60032084F88450BDE8F883C4F8B2
:104710008860C4F88C60E5662567002084F88450C2
:10472000F3E710B5806B0021A0F85E10A0F85610DA
:10473000FFF751F810BD000010B5026852E8001FE5
:1047400021F4907142E80013002BF6D10E4B026861
:10475000083252E8001F194042E80014002CF6D13C
:10476000C16E012908D1026852E8001F21F0100132
:1047700042E80013002BF6D100212022C0F88C2043
:10478000C166416710BD0000FEFFFFEF2DE9F04359
:1047900004468068D84E87B0D84B2168D4E90427F6
:1047A000D4F81CC010430A68002547EA0C073843B8
:1047B000324002430A602068E268416821F44051B7
:1047C000114341602268A1699A4201D0206A0143E5
:1047D0009768DFF82CC3CB4ECB4807EA0C070F4392
:1047E00097602168676ACA6A22F00F023A43CA6278
:1047F0002268B2420ED1006800F03800182873D049
:1048000047DCB8B3082879D010286FD178E0282881
:104810007ED17BE0BD498A4209D1006800F00700E3
:10482000062875D2DFE800F0546A6C6E7072B849E1
:104830008A4209D1006800F00700062868D2DFE844
:1048400000F0475D5F616365B2498A4209D1006843
:1048500000F0070006285BD2DFE800F03A5052541F
:104860005658AD498A420BD1006800F0070006286F
:104870004ED200E010E0DFE800F02B41434547490D
:10488000A6498A420AD1006800F03800182839D0B9
:10489000B7DD2028BBD13CE001203AE0A0498A42A4
:1048A00009D1006800F00700062831D2DFE800F0E7
:1048B0001026282A2C2E9B498A420BD1006800F032
:1048C0000700062824D2DFE800F003191B1D1F2172
:1048D00000201EE09A421BD18B48001D006800F0AA
:1048E0000700062814D202E00CE007E010E0DFE841
:1048F00000F0030507090B0D02200AE0042008E080
:10490000082006E0102004E0202002E0402000E023
:1049100080208549DFF814829A42854A4FF400438B
:104920004FEA21174FF000064ED110281AD006DCAE
:10493000022809D004280BD008287CD10DE02028BB
:104940003ED0402877D13DE0FDF7BAFB014610E0AC
:104950006846FDF7C7FB01990BE003A8FDF764FC6F
:10496000049906E01068800605D51068C0F3C10000
:10497000C140002970D0606A676838F8102007EBE2
:104980004703B1FBF2F0834255D8B0EB073F52D852
:10499000002308461946FBF79DFC02467808130ED3
:1049A000120243EA012110183A4671410023FBF735
:1049B00091FC604AA0F5407191423CD821688FE09B
:1049C0003946D8E71946D6E7D4F81CC04FF6EF7938
:1049D0009C4546D1082819D005DC58B101280CD0D7
:1049E000042875D10DE0102815D0202835D0402896
:1049F0006ED134E0FEF7E0FA01E0FEF7EFFA01468F
:104A000010E06846FDF76EFB01990BE003A8FDF787
:104A10000BFC049906E01068800604D51068C0F30A
:104A2000C100C140C1B1636A606838F81330B1FB9E
:104A3000F3F1490000E04BE001EB5001B1FBF0F075
:104A4000A0F11001494543D84FF6F0732168C0F337
:104A500042021840104343E043E03946E3E7194679
:104A6000E1E7082819D005DC58B101280CD004284A
:104A70002ED10DE0102815D020282BD0402827D18A
:104A80002AE0FEF799FA01E0FEF7A8FA014610E0E5
:104A90006846FDF727FB01990BE003A8FDF7C4FB6F
:104AA000049906E01068800604D51068C0F3C100C0
:104AB000C140B1B1636A606838F81330B1FBF3F1FB
:104AC00001EB5001B1FBF0F0A0F11001494505D90F
:104AD000012506E03946EDE71946EBE7216880B28B
:104AE000C8600120A4F86A00A4F868002846666738
:104AF000A66707B0BDE8F083F369FFCF000C00584C
:104B0000FFF4FF11001001405444025800440040DB
:104B100000480040004C004000500040001401409C
:104B200000780040007C00400090D00378ED000841
:104B300000440258FFFC0F002DE9F0479946174644
:104B40000E460446089D4FF000082FE0681C2DD04B
:104B5000FDF794F9A0EB0900A84214D89DB1206894
:104B60000168490722D5C169C94309070DD4082541
:104B700005622046FFF7E0FDC4F89050012084F85C
:104B80008480BDE8F0870320FBE7C069C0430005CF
:104B90000CD421684FF4006008622046FFF7CCFD7A
:104BA0002021C4F8901084F88480ECE72068C06964
:104BB00036EA000004D00020B842C7D00020E0E769
:104BC0000120F9E70148FEF707BE0000F8000024C5
:104BD000FEE700000FB4054B10B503A9044A029884
:104BE00000F028F810BC5DF814FB00003D5E0008E2
:104BF000F4000024090700284FEA116104DB00F1EA
:104C0000E02080F80014704700F00F0000F1E02071
:104C100080F8141D704702E008C8121F08C1002A5E
:104C2000FAD170477047002001E001C1121F002A2D
:104C3000FBD170472DE9FF4F8BB09A460F460546D2
:104C4000002606E025280BD052460D9990476D1C92
:104C5000761C28780028F5D10FB03046BDE8F08FDB
:104C60000024A0460122604900E0044315F8013FFA
:104C7000203B02FA03F00842F7D128782E2817D1FA
:104C800015F8010F44F004042A280ED06FF02F020B
:104C90002878A0F1300109290AD808EB880102EB35
:104CA000410100EB01086D1CF2E757F8048B6D1C05
:104CB000287869283ED006DC0028CDD063280BD0A8
:104CC000642804D136E0732810D075284BD05246A2
:104CD0000D999047761C85E017F8040B8DF80000BD
:104CE00000208DF80100E946012003E057F8049BFD
:104CF0004FF0FF3061074FF0000401D40AE0641C5C
:104D000044450DDA8442FADB19F804100029F6D183
:104D100006E0641C8442FCDB19F804100029F8D179
:104D2000264404E019F8010B52460D999047641E81
:104D3000F8D257E001CF4FF00A0B002802DA4042C8
:104D40002D2102E0210504D52B218DF8241001210D
:104D500003E0E10705D02021F7E70DF120090891D4
:104D60000CE00021F9E701CF4FF00A0BF9E75946B3
:104D7000FBF733FB01F1300209F8012D0028F6D1D1
:104D8000ADEB090000F1200B600701D44FF00108E2
:104D9000D84502DDA8EB0B0000E00020804600248F
:104DA00006E009A85246005D0D999047641C761CE8
:104DB00008988442F5DB04E0302052460D99904774
:104DC000761CB8F10001A8F10108F5DC05E019F83E
:104DD000010B52460D999047761CBBF10001ABF1D7
:104DE000010BF4DC6D1C34E70928010070B50546A1
:104DF0000C4614F0030F06D006A34FF4B67211A1AF
:104E000018A0FFF7E7FEA86800682060A8680460A3
:104E100070BD00002E2E2F4D6964646C6577617241
:104E200065732F54686972645F50617274792F4C96
:104E30007749502F7372632F636F72652F6D656DA5
:104E4000702E63006D656D705F667265653A206DEA
:104E5000656D2070726F7065726C7920616C696726
:104E60006E656400417373657274696F6E202225EC
:104E70007322206661696C6564206174206C696EC0
:104E80006520256420696E2025730A0010B58068AE
:104E90000468002C0DD02168016014F0030F06D0C7
:104EA00005A34FF48C7210A118A0FFF793FE2046C3
:104EB00010BD002010BD00002E2E2F4D6964646CC3
:104EC0006577617265732F54686972645F506172AF
:104ED00074792F4C7749502F7372632F636F72650B
:104EE0002F6D656D702E63006D656D705F6D616C0B
:104EF0006C6F633A206D656D702070726F706572B3
:104F00006C7920616C69676E65640000417373653C
:104F10007274696F6E2022257322206661696C6548
:104F200064206174206C696E6520256420696E20A0
:104F300025730A0070B505460024084E04EB4400B2
:104F400006EBC000017D29B18068A84202D120464D
:104F500000F046F9641C0A2CF0DB70BD347B0024A1
:104F60002DE9F74F86B0804691464FF00A0BDA469E
:104F70000A2700240A200490002003900290019048
:104F800004EB44005749059001EBC006357D0A2F1C
:104F900001D1002D1ED0002D28D0012D08D0022DCA
:104FA00006D251A340F223125DA16DA0FFF712FEBD
:104FB000B8F1000F10D0D8F80000716888420BD10A
:104FC000B9F1000F02D0B068484505D109B02046BC
:104FD000BDE8F08F274609E0012D10D0022D05D342
:104FE000708A0199884201D3A2460190601C04B2E4
:104FF0000A2CC5DB079810F0020F1DD112E03948CA
:10500000059950F8310030B1708A03998842EDD388
:1050100004940390EAE7708A02998842E6D3A34693
:105020000290E3E70A2F03D1079810F0010F03D095
:105030000A2F06DA3C462BE009B04FF0FF30BDE8FE
:10504000F08FBAF10A0F0EDA5446264804EB4401F9
:1050500050F8310080B124A340F26D124AA140A063
:10506000FFF7B8FD08E0BBF10A0F01DA5C4603E088
:1050700004980A2831DA049C0A2C06DB1AA340F2B1
:105080007F1247A136A0FFF7A5FD204600F0A8F843
:105090000A2C06DB14A340F2831241A130A0FFF7D3
:1050A00099FD104804EB440100EBC105287D30B1A7
:1050B0000DA34FF4C2723FA129A0FFF78BFDB8F1F9
:1050C000000F02D0D8F80000686000206882C5F8A0
:1050D000089009B02046BDE8F08F09B04FF0FF30CE
:1050E000BDE8F08F347B00242E2E2F4D6964646C54
:1050F0006577617265732F54686972645F5061727D
:1051000074792F4C7749502F7372632F636F7265D8
:105110002F697076342F6574686172702E63000099
:105120007374617465203D3D204554484152505F81
:1051300053544154455F50454E44494E47207C7C72
:10514000207374617465203E3D204554484152509F
:105150005F53544154455F535441424C4500000055
:10516000417373657274696F6E2022257322206605
:1051700061696C6564206174206C696E65202564CA
:1051800020696E2025730A006172705F7461626C21
:10519000655B695D2E71203D3D204E554C4C0000F5
:1051A00069203C204152505F5441424C455F534975
:1051B0005A4500006172705F7461626C655B695D85
:1051C0002E7374617465203D3D2045544841525012
:1051D0005F53544154455F454D5054590000000001
:1051E00070B5084D00EB4004002655F83400002847
:1051F00003D003F00DFF45F8346005EBC4000675DD
:1052000070BD0000347B0024F0B587B007460D4622
:10521000002D05D07C682088B0F5807F12D108E091
:1052200023A340F28A2230A133A0FFF7D3FC07B0BA
:10523000F0BD2079062805D16079042802D1608864
:10524000082804D0384603F0E3FE07B0F0BDD4F8D8
:105250000E000690A0690590696819B1884203D1D3
:10526000012602E0002600E000260EB1012300E046
:105270000223284604F1080206A900F0CDFBE088CD
:10528000B0F5807F0ED16EB12B1D009302200390EC
:105290002233284606A9029104F108021946019218
:1052A00000F0B0FA384603F0B3FE07B0F0BD0000DE
:1052B0002E2E2F4D6964646C6577617265732F546F
:1052C000686972645F50617274792F4C7749502F0E
:1052D0007372632F636F72652F697076342F6574F4
:1052E000686172702E6300006E6574696620213DEE
:1052F000204E554C4C000000417373657274696F09
:105300006E2022257322206661696C6564206174B9
:10531000206C696E6520256420696E2025730A0063
:1053200070B584B004460E461546002C06D14CA339
:1053300040F21E3258A15CA0FFF74CFC36B948A3DE
:1053400040F21F3262A158A0FFF744FC280006D1AA
:1053500043A34FF4487261A153A0FFF73BFC2868B8
:10536000214600F05EFF08B1604B44E0286800F081
:10537000F001E0292AD0A168636800EA010219401F
:105380008A4208D080B2A0F57E41A93903D0E068F6
:10539000E0B304F10C05564B56491A7802EB420073
:1053A00001EBC00090F814C0BCF1020F33D3D0F869
:1053B00008C0A4452FD1D5F800C0406884452AD143
:1053C0003146204600F098F804B070BD01208DF8F9
:1053D000080000208DF809005E208DF80A0068782A
:1053E00000F07F008DF80B00A8788DF80C00E878AD
:1053F0008DF80D0002AB4FF40060314604F1260237
:105400000090204600F046FC04B070BDFFE704B0F9
:105410006FF0030070BD002202EB420001EBC00000
:1054200090F814C0BCF1020F0FD3D0F808C0A44507
:105430000BD1D5F800C04068844506D11A703146BA
:10544000204600F059F804B070BD501CC2B20A2AC0
:10545000E2D332462946204600F0D0F804B070BDB1
:105460002E2E2F4D6964646C6577617265732F54BD
:10547000686972645F50617274792F4C7749502F5C
:105480007372632F636F72652F697076342F657442
:10549000686172702E6300006E6574696620213D3C
:1054A000204E554C4C000000417373657274696F57
:1054B0006E2022257322206661696C656420617408
:1054C000206C696E6520256420696E2025730A00B2
:1054D0007120213D204E554C4C00000069706164E4
:1054E000647220213D204E554C4C0000BCED00085C
:1054F000E4000024347B0024F8B505460E461A4823
:1055000002EB420100EBC104207D022806D217A362
:1055100040F2EE2223A12FA0FFF75CFB207D0228A2
:1055200016D1618A0327B1F58E7F06D9211D284641
:1055300000F026FA60B927750AE0B1F5877F07D336
:10554000211D284604F10C0200F020FA00B927754D
:105550004FF4006004F10C03314605F1260200907F
:10556000284600F097FBF8BD347B00242E2E2F4DEB
:105570006964646C6577617265732F5468697264DD
:105580005F50617274792F4C7749502F7372632F7B
:10559000636F72652F697076342F657468617270FD
:1055A0002E6300006172705F7461626C655B617292
:1055B000705F6964785D2E7374617465203E3D2070
:1055C0004554484152505F53544154455F535441F0
:1055D000424C4500417373657274696F6E202225D9
:1055E0007322206661696C6564206174206C696E49
:1055F0006520256420696E2025730A002DE9F04F8F
:1056000083B082460F4616460AF1260002904FF0FC
:10561000FF344FF000083868514600F002FE90B9A0
:10562000386800F0F001E0290DD067B158B10121D0
:1056300052463846FFF794FC0546002D08DA03B0C1
:1056400068B2BDE8F08F03B06FF00F00BDE8F08FD7
:105650007F2D06D33CA340F2C13249A14CA0FFF7F5
:10566000B9FA05F0FF0B54480BEB4B0900EBC905E9
:10567000297D29B94FF0010801212975C5F808A035
:10568000287D012808D0022806D22FA340F2CD326F
:105690004AA13FA0FFF79EFAB8F1000F00D12EB942
:1056A0003946504600F06CF9044696B1287D424FC9
:1056B000022812D34B4880F800B04FF40060029AE1
:1056C00005F10C0331460090504600F0E3FA044621
:1056D00035E003B02046BDE8F08F01282FD100252A
:1056E000344660892189884208D1206830B116A3E8
:1056F00040F2F1323CA126A0FFF76CFA207B10F0BB
:10570000400F01D0012502E02468002CE9D13DB111
:105710000E2032464FF4207103F09CFA064602E058
:10572000304603F007FE46B157F8390008B103F0E0
:105730006FFC47F83960002401E04FF0FF3403B0FC
:105740002046BDE8F08F00002E2E2F4D6964646C5A
:105750006577617265732F54686972645F50617216
:1057600074792F4C7749502F7372632F636F726572
:105770002F697076342F6574686172702E63000033
:1057800074797065206F766572666C6F77000000C3
:10579000417373657274696F6E20222573222066CF
:1057A00061696C6564206174206C696E6520256494
:1057B00020696E2025730A00347B00246172705FBB
:1057C0007461626C655B695D2E7374617465203D04
:1057D0003D2050454E44494E47206F72205354415E
:1057E000424C4500E40000246E6F207061636B65DD
:1057F000742071756575657320616C6C6F77656475
:10580000210000002DE9FF4F81B006469A46DDF8E1
:105810004090DDF83C800E9F4FF0000B002E06D12B
:105820002DA340F257423AA13DA0FFF7D3F91C2126
:105830000E204FF4207202F0BBFF0546280045D031
:1058400068891C2806D224A340F262423EA134A0FB
:10585000FFF7C0F96C68119801F046FEE08096F8F9
:105860002C00062806D045491BA32DA040F2694212
:10587000FFF7B0F9DAF80000A060BAF80400A081E0
:10588000D8F80000C4F81200B8F80400E0823868C4
:10589000C4F80E00D9F80000A0614FF48070208099
:1058A00008206080062020710420607140F6060008
:1058B000039B2946029A0090304600F0EBF92846F7
:1058C00003F0A6FB05B05846BDE8F08F05B04FF0D9
:1058D000FF30BDE8F08F00002E2E2F4D6964646C00
:1058E0006577617265732F54686972645F50617285
:1058F00074792F4C7749502F7372632F636F7265E1
:105900002F697076342F6574686172702E630000A1
:105910006E6574696620213D204E554C4C00000098
:10592000417373657274696F6E202225732220663D
:1059300061696C6564206174206C696E6520256402
:1059400020696E2025730A00636865636B207468A4
:105950006174206669727374207062756620636179
:105960006E20686F6C642073747275637420657444
:10597000686172705F6864720000000098EF000850
:10598000014A00F003B80000BCED000810B584B077
:10599000DFF81CC00123041D039300F12603CDF89A
:1059A00004C0009402911946FFF72CFF04B010BD0B
:1059B000C2ED00082DE9F0410024164D042602270F
:1059C00004EB440005EBC002117DE9B1508A401C94
:1059D00080B25082B0F5967F03D2012905D1052807
:1059E00003D32046FFF7FCFB0EE0032904D0042973
:1059F00004D0012904D007E0167505E0177503E00F
:105A00009068111DFFF7BCFF641C0A2CD8DBBDE8B1
:105A1000F0810000347B0024F8B504460D4616469C
:105A20001F4694F82C00062806D020A340F2A912A5
:105A30002CA135A0FFF7CEF89DB1286888B121468A
:105A400000F0EFFB68B9287800F0F000E02808D0FB
:105A5000224639462846FFF783FA002804DA40B286
:105A6000F8BD6FF00F00F8BD314A00EB4001022392
:105A700002EBC100037584603368C360B38803829E
:105A80000023438252F8315075B142F831304FF45F
:105A90000060334604F1260229460090204600F0BB
:105AA000F9F8284603F0B4FA0020F8BD2E2E2F4D49
:105AB0006964646C6577617265732F546869726498
:105AC0005F50617274792F4C7749502F7372632F36
:105AD000636F72652F697076342F657468617270B8
